:020000041000EA
:1000000000B5324B212058609868022188439860DF
:10001000D860186158612E4B002199600221596106
:100020000121F02299502B49196001219960352056
:1000300000F044F80222904214D00621196600F024
:1000400034F8196E01211966002018661A6600F04E
:100050002CF8196E196E196E052000F02FF8012189
:100060000842F9D1002199601B49196000215960AB
:100070001A491B48016001219960EB211966A021F2
:10008000196600F012F800219960164914480160C1
:100090000121996001BC002800D000471248134993
:1000A000086003C880F30888084703B5996A0420EC
:1000B0000142FBD001200142F8D103BD02B5186610
:1000C0001866FFF7F2FF186E186E02BD00000240BE
:1000D000000000180000070000035F00212200005C
:1000E000F4000018222000A00001001008ED00E03C
:1000F00000000000000000000000000074B24E7A12
:1001000000200420F7010010C3010010C5010010F9
:10011000C1010010C1010010C1010010C101001097
:10012000C1010010C1010010C1010010FD3000101C
:10013000C1010010C101001041310010C132001096
:10014000CD010010CD010010CD010010CD01001037
:10015000CD010010CD010010CD010010CD01001027
:10016000CD010010CD010010CD010010CD01001017
:10017000CD010010CD010010CD010010CD01001007
:10018000CD010010CD010010CD010010CD010010F7
:10019000CD010010CD010010CD010010CD010010E7
:1001A000CD010010CD010010CD010010CD010010D7
:1001B000CD010010CD010010CD010010CD010010C7
:1001C00000BE00BE00BE00BE00BE00BE00F04BF888
:1001D000103800BEF2EB88716CB900108CB90010B9
:1001E0003402001090A31AE700202149086006C8D5
:1001F00081F3088810471F48006800282FD10DA4FC
:100200000ECC002902D000F012F8F9E71A491B4A77
:10021000002000E001C19142FCD1194988471949E9
:1002200088471949884700BEFDE701C901C29A42C3
:10023000FBD370478CB90010C0000020CC08002010
:1002400098C10010000004200000042098C1001094
:1002500000100420001004200000000070470B482C
:1002600007F0AAF90047EFF30580C0B2704700001D
:1002700008ED00E0000000D0D0080020C4DD02201E
:10028000615A001099040010515B0010575600008D
:1002900006005250ABB3605320B700100600525016
:1002A000861C030230B70010060052505422A29D53
:1002B00048B7001005005250DE65F46898C1001080
:1002C000F8B5C0460448054B10B5834203D0044B33
:1002D000002B00D0984710BDCC080020CC0800208F
:1002E0000000000006480749091A8B10C90FC918F9
:1002F00010B5491003D0044B002B00D0984710BD17
:10030000CC080020CC0800200000000010B5074CED
:100310002378002B09D1FFF7D5FF054B002B02D026
:10032000044800E000BF0123237010BD280C00200A
:100330000000000078B20010054B10B5002B03D070
:100340000449054800E000BFFFF7CCFF10BDC046E0
:10035000000000002C0C002078B20010D02330B533
:100360001B0683B01D6805F071FB0400002005F03A
:1003700015F823002A000A4900900A4808F014FAE8
:10038000094808F06FF9642004F052FD00F0C6FD42
:10039000032004F04DFDFA20800000F04BFEF7E74B
:1003A000841E022078B2001090B20010FA2030B5FE
:1003B000400085B004F03CFDD0231B061D6805F00D
:1003C00045FB0400002004F0E9FF23002A0028492F
:1003D0000090284808F0E8F91921274808F0E4F9C6
:1003E00000F0F2FF802200215202244807F0CEFFE5
:1003F000142001F02DF8224801F026FA642004F0C0
:1004000017FD002001F020FA0124200000211D4AE0
:1004100001F014F820003F211B4A013401F00EF8CE
:100420007F2CF2D10024CC2221000020920101F087
:1004300005F8210033223F20013400F0FFFF802C1B
:10044000F1D120210120114A00F0F8FF03AA002376
:100450000192FA220E4903930093920001330D4852
:1004600004F086F9002004F0C5FA05B030BDC0469E
:10047000841E022078B20010A4B20010641A00207A
:100480000202020000333300330033003333000034
:10049000C0B200105D03001000B583B008F090F901
:1004A0000F2001F051FCD02380221B0612025A6259
:1004B0000023FA22054901930093D2000133044836
:1004C00004F056F904F0F2FAFEE7C046CCB2001090
:1004D000AD030010012130B50C001B4BA0201B68A0
:1004E0001A4A9C40C00585582C4214D08450A02440
:1004F000E405A4461648174C02889B0195002C5928
:100500006344DC630C00013293B2134A0380128807
:100510009440A34210DA0122104BA0201B680B4923
:100520009A40C0054458224205D0844642509B015F
:100530000B4A6344DA6330BDD02380221B061202CB
:10054000DA610180E7E7C046641A01200C0400006C
:1005500088030020A01000208A030020F819002042
:10056000F8150020F0B5DE4657464E464546E0B544
:100570008DB0082800DD0820042800DA0420EF4BA5
:10058000002118800B2001F0FDFB1B2001F0DCFB9B
:10059000D02380221B0612055A62E94C5A61E94BAE
:1005A000200019689B4601F0BDF9002800D04BE2FD
:1005B000E54BE34C1B6820001900039301F0B2F9EE
:1005C000002800D02CE2DE4801F020FADF4B1B6847
:1005D0001800039302F08AFD002819D0DB4BA021FC
:1005E000186801238340DA4AC9058B50D94B820130
:1005F00054189C4680216244490413680B42FCD184
:10060000D54AC3021A40D54B1343236102F056FD6D
:10061000D34B1B681800039302F068FD002819D023
:10062000CF4BA021186801238340C94AC9058B50CC
:10063000C84B820154189C468021624449041368C7
:100640000B42FCD1C44AC3021A40C44B134323617A
:1006500002F034FD0B20C34901F0E8FCB74B002148
:100660001B88C14899465A0307F090FE4B4600216B
:10067000DA01BE4807F08AFE4B46042200219A4068
:10068000BB4807F083FE002398464B46002B1BD047
:1006900001264A4633009340012B15DD37004346BF
:1006A00001249F40B34D274203D02B68002B00D17B
:1006B00092E13300013493400435A342F3DC01237B
:1006C0009C46E0449045E5DB01219D4801F00CF992
:1006D0009D4B012118609A4801F006F95B46A64936
:1006E0001860974801F02EF9974BC2011E688023CD
:1006F0005B02089303001A331B0313439F4A08ADA0
:1007000013406B60C0231B030A9380239B05EB609F
:100710000123804600930622310089480B3301F003
:1007200091F9062420000621013401F0F5FA122C7B
:10073000F8D1EB68924A824F1A40924B3100134332
:10074000EB6001239A461A2238000093013301F02E
:1007500079F906211A2001F0DFFA06211B2001F0A9
:10076000DBFAEB68884A31001A40884B38001343A3
:10077000EB6053461C22009301F064F906211C2013
:1007800001F0CAFAEB68824A31001A40814B380006
:100790001343EB606A68794B13406B602A897E4B88
:1007A0001343AB6042462B0001F08EF97B4A730085
:1007B000944642469B19DB0063441A605346B3409B
:1007C0003A68774913433B60380001F0BBF85B4659
:1007D0001B6804AE984600238022F360F82352027F
:1007E0005B0204920593C02381461B031022310053
:1007F000B360280007F0D0FD4B464A460433D201CF
:100800001B031343290010226B60300007F0C4FD66
:1008100053461222009341463800043301F012F986
:1008200020000621013401F077FA172CF8D1F36883
:10083000534A434D1A405B4B06211343F3601A2081
:1008400001F06AFA163C06211B2001F065FA4146C8
:100850002800009402231A2201F0F4F8F3684A4AAF
:1008600041461A40494B28001343F36032894A4BF2
:1008700019271343B3604A46330001F025F9434674
:10088000464A5B0094464A464344DB006344414683
:100890001A6023008B402A68012013432B60A02597
:1008A00002F014FCED05AC46284B3F4A1860264B7D
:1008B00090461968C3023D4D1340CA031343820199
:1008C0006244AC4600268900614416605160802174
:1008D0003B4309019160136123008340344D0120A3
:1008E0002B6002F0F3FB1E4B414618605B461A6812
:1008F000C3020B40D1030B43A021C9058C462B49F1
:100900001F43830163448C46920062441E6084400E
:100910005A6020220B209A6012491F612C6001F05E
:1009200069FA01210B2001F05BFC01210B2001F091
:1009300029FAA022D2059446044B3BE08A0300200A
:1009400000002050681A01206C1A0120641A01204E
:10095000440400000C000050FDFF1FFF18801F0022
:10096000F8190020D50400107C1A0120F815002089
:10097000A0100020A410002008B30010FFFFFF9F6C
:10098000E0FF0FFC0600C0001FFCFFE3400300086F
:10099000FF83FF1F0070002000000840D800205097
:1009A000F4B2001012005000FD7F00FF1000205034
:1009B000042400502D4A1B689B016344DA632C4BCE
:1009C0002C4A1B689B016344DA630DB0F0BCBB4644
:1009D000B246A946A046F0BDD0231B061B689A4626
:1009E00005F034F88146002004F0D8FC4B4652460E
:1009F00021490090214807F0D7FE214B21001A8899
:100A000043462048D21A07F0CFFE41461C4B1A88B5
:100A1000531E5B1A15495B038C4663442B6048E602
:100A20000122194B2000196823688A4093432360F0
:100A30000022002301F048F8134B20001B68190026
:100A4000039300F041FFBEE55B460122196823686D
:100A50008A409343200023600022002301F034F8F1
:100A60005B462000196800F02FFFA1E57C1A0120E9
:100A7000F8190020F8150020841E022078B200101A
:100A80008A030020D8B200106C1A012004307F289D
:100A900000DD7F20042800DA0420014B1880704715
:100AA000B6DD0220431E0E2B02D8024B8000C1503F
:100AB0007047C046A85E0220F0B54E46DE46574657
:100AC00045460822E0B5B14B93B01E880F901091B7
:100AD000961B082E00D151E1AD4B1A8803000792F6
:100AE000AC4A0D92AC4A0E928022D20194466344E5
:100AF000119301270E9BB74008930F9B0B93119BFB
:100B00000A93109B099300230C9380210B9B0902ED
:100B10008C461A00C021624409028C4692461A0093
:100B200062449146099A8020944640016044C02165
:100B3000029080200192089A8001890193466044C6
:100B400061449C4601230A9A05935B4690460390B4
:100B5000049106936346186843461C685346196817
:100B60004B461A68019B1B78002B02D08B489B00D8
:100B70001858029B1B78002B02D0884C9B00E4582D
:100B8000039B1B78002B02D084499B00C958049B0F
:100B90001B78002B02D0814A9B00D2582300250CE1
:100BA0003B40F3403D40F5409B001D43230A3B4042
:100BB000F3405B001D430300040C3B40F3403C400A
:100BC000F4409B002343040A3C40F4406400234368
:100BD000ED001D430B00080C3B40F3403840F04053
:100BE0009B0018430B0A3B40F3405B0003439B010F
:100BF0001D431300110C3B40F3403940F1409B0072
:100C00000B43110A3940F14049000B435B02079A3C
:100C100005992B439B468A4203D2802252011343FB
:100C20009B466246506842465468524651684A465E
:100C3000019D52686D78002D02D0584BAD00E858E8
:100C4000019D02350195029D6D78002D02D0534B18
:100C5000AD005C59029D02350295039D6D78002D13
:100C600002D04E4BAD005959039D02350395049DAA
:100C70006D78002D02D0494BAD005A59049D0235C4
:100C8000049525003D40F540AD002B00250C240ABD
:100C90003D403C40F540F4401D43640025430400C2
:100CA0003C40F440A300040C000A3C403840F440AF
:100CB000F0401C4340000443ED0025430C00080CA9
:100CC0003C40F4403840F040A40020430C0A3C4033
:100CD000F440640004431000110C3840F0403940E7
:100CE000F14080000143100A3840F0405B4640006C
:100CF0000843059AA40125434002054301320799A0
:100D00002D0492B22B43914202D28022520513430A
:100D1000069A08C208239B46059B069202339BB2A3
:100D2000DC44D844DA44D9440593812B00D011E740
:100D3000089B0C9A01330D99FF3308939300CA5016
:100D4000802189008C46531C0B9A0C9362440B92B1
:100D50000A9A62440A92099A80320992202B00D0A2
:100D6000D3E68022920194460D9B013680330D9389
:100D70000E9B63440E93082E00D0BAE6002013B0F9
:100D8000F0BCBB46B246A946A046F0BD8A0300208F
:100D9000B6DD0220F81500207C1A0120A85E022092
:100DA000F0B557464E464546DE46E0B5584E03017F
:100DB00083B09946F31801915968DB68554A9C46FF
:100DC0005768D568DB0FEC1BE20F12195210D219CD
:100DD0000092514A63441469904652695B109246EE
:100DE0005B1822431DD0002822D1002C52DB002C9E
:100DF00020D0009AD01E984203DD4A460331B01835
:100E00004160009A03329A422CDB8F4203DD4B464D
:100E10003900F3185F606346ED1A8D4201DA4E44E3
:100E2000756003B0F0BCBB46B246A946A046F0BD13
:100E3000002CDCDDE217A418544052460134002A8D
:100E400015DD42465268181B824203DD48460919E7
:100E5000301841601B199A42D7DA4B46091BF31828
:100E60005960D2E74B460339F3185960CDE7002AA1
:100E70002AD0424652681819824203DA4846091BB2
:100E8000301841601B1B9A42BFDD4B460919F3180D
:100E90005960BAE79130019AFF308242CADA53466C
:100EA000002B07DD4346009A5B68934209DD023957
:100EB0007160AAE7002B16D04346009A5B68934204
:100EC000F5DD02317160A0E7424652689A4205DCC6
:100ED00048460139301841609A4296D14B4601315B
:100EE000F318596091E74346009A5B68934207DD27
:100EF00062468A18934200DB87E70239716084E713
:100F00004246D2689B18994200DB7EE70231D9E75E
:100F1000F85E0220E85E0220B414002070B532238F
:100F20000A263F4C82B0A360E3602660666000F052
:100F3000AFFC01203B4900F0C3FCFF21012502204A
:100F4000090400F0BDFC0320374900F0B9FC6368D8
:100F5000591EA36809B25A1C236812B2581E00B267
:100F60000B000195009500F077FAE368591CA3681F
:100F700009B25A1C236812B2581E00B20B00019528
:100F8000009500F069FA23686268581EE36800B2B1
:100F9000511E013302001BB209B20195009500F009
:100FA0005BFAA3686268581CE36800B2511E013303
:100FB00002001BB209B20195009500F04DFA2268BB
:100FC000A3689B1AD80FC0184010E36880186268A5
:100FD00000B2511E013302001BB209B20195009507
:100FE00000F03AFAA168114BCA0FE068521852108B
:100FF0001A60C20F1218052052109860D8605A600B
:1010000020685D611D610A4B0139186002205A6039
:101010009860DE6019615A619861DE6102B070BD4E
:10102000E85E0220007FFF0050FF5000B414002053
:10103000F85E0220F0B5DE4657464E464546E0B51E
:1010400087B0070000F0E4F9AF4D00260C22AB5E3C
:1010500008216A5E0420295E0024285F012400968E
:10106000019400F0E9FA2A68AB689B1AD80FC018FF
:101070004010EB6880186A6800B2511E013302000C
:101080001BB209B20194009400F0E6F99F4C236969
:1010900061691A000A4300D116E122686868944623
:1010A000626863448A1823606260824237DBE068CA
:1010B00082465646E868801B824201DD49426161F2
:1010C000A168BB468C46924903920E0000210F0096
:1010D00004910596316870688846F1684118002FC0
:1010E00020D09C44C44559DD039A914256DD5244B8
:1010F000904253DA0122524202239046C8225B42B8
:101100009200934523DB0AF033F80123C20F8018C5
:1011100003409B1A424601335A43130017E0E0682C
:101120008246CBE7B2689146C844984500DCCEE0E1
:10113000039A914200DCBCE001215244884690426F
:1011400000DBB8E0C822022392009345DBDA23617A
:101150000AF00EF8052106F061FA7B1C9846DBB216
:101160000493D0231B061B6802399A46616104F080
:101170006DFC8146002004F011F94B46524665494A
:101180000090654807F010FB23695A463900634810
:1011900007F00AFB2368012F00D08CE0059A5F4618
:1011A0009346049A002A09D15A46126801329A429B
:1011B00004DBC8225200974200DA8BE02A689A4288
:1011C00001DD13002260AA68A168521A9A4200DA6F
:1011D000226062686B689A4201DA1A006360EB6809
:1011E000E1685B1A934200DA636039000020FFF780
:1011F000D7FD39000120FFF7D3FD202398465E4636
:10120000D844F368002B13DD0027B368002B0FDDF3
:10121000002573680222F9183368E81800F042FBD1
:10122000B3680135AB42F4DCF26801379742EDDB7D
:1012300010364645E5D1E368002B30DD0026012558
:10124000A268002E1FD1531E9D420ADA2368032292
:10125000E818616800F026FBA2680135531EAB4216
:10126000F4DCE5680136B54219DD013DAD1B6B428A
:101270005D41E6E763680322F1182368E81800F08F
:1012800011FBA2680135E368013B9B1B59424B41AE
:10129000D31A9D42EEDBE5680136B542E5DC00F08D
:1012A000C1F8002007B0F0BCBB46B246A946A04634
:1012B000F0BD0122904662680392A2689446E268FB
:1012C00092464746103605E7114B9B468DE70122B3
:1012D0009046F6E7049B23616361D0231B061B68DD
:1012E000984604F0B3FB0600002004F057F83300E2
:1012F000424608490090084807F056FA3900084865
:1013000007F052FA236859E7E85E0220B41400207F
:10131000F85E0220841E022078B2001048B300104C
:1013200078B3001070B50A4C0A4E0B4D642120684A
:1013300002F0CAFE31002868FFF7BEFB002300223E
:101340000021206802F008FB032003F071FDEDE7A7
:10135000781A0120A81E02208C030020F0B5082571
:10136000FF26164B140A1B883440ED1A130C334029
:101370001640134AEB40EC40EE401578002D03D0A8
:101380005778DDB2AF4210D00E4AC9010918106873
:10139000FF221B0412041340FF222406240C2343C3
:1013A0001640890033430B50F0BD9778E5B2AF4249
:1013B000EAD1D578F2B29542E6D1F5E78A0300206A
:1013C000B01400208C03002000B5012085B002F08D
:1013D00067FC0C4B002200211860002302F0BCFACD
:1013E0000820FFF7BFF80023802203A9039301918F
:1013F0000093054901339200044803F0B9F905B0A0
:1014000000BDC046781A012098B3001025130010C3
:1014100010B5034B6421186802F056FE10BDC0469B
:10142000781A012010B5044B00221868002100230F
:1014300002F092FA10BDC046781A0120034BC90190
:101440001B68091889005A507047C0468C03002059
:1014500010B5FFF71BFB10BDF0B5454657464E468D
:10146000DE46E0B5170087B03D1AEE1710AA10CA85
:10147000AD1975405E1A0294F41736196640884615
:10148000012412780490874200DA6442A3468B421A
:101490003ADB01239946B5423BDB7300761B9A4643
:1014A0005F1B73000193002A00D186E05B46012B8D
:1014B00000D0A0E05F4983B28B465A1C01995519B0
:1014C0008C4601304146ADB206E093B267444944D0
:1014D00001309D4211D05A1C461E7F2B06D88BB27C
:1014E0007F2B03D8029CCB015B449C55002FECDA88
:1014F00093B2574401309D42EDD107B0F0BCBB46DA
:10150000B246A946A046F0BD01235B429946B542CA
:10151000C3DA6B00AD1B9A469F1B6B000193002A38
:101520001DD13300444600259846049E07E0019BE8
:101530005E449C464C4467440135A845DDDBB3B2AC
:101540007F2B07D8A3B27F2B04D8029A21B230B2E6
:10155000FFF704FF002FEADA57444C44ECE74A4611
:1015600052424B469446334AD80105924A4640427D
:10157000494400238146049C0136039209E0019A04
:101580005C4490464744039A013390464144B34239
:10159000B3D0A2B27F2A0CD86246521892B27F2AE8
:1015A00007D80598CA0180464846029D4244121950
:1015B0001554002FE3DA5744E5E72B000026454693
:1015C000049C984607E0019B5C449C464D4467445C
:1015D0000136B04591DBA3B27F2B07D8ABB27F2B8E
:1015E00004D8029A29B220B2FFF7B8FE002FEADA37
:1015F00057445C44ECE7019A0023944644465E4617
:10160000013506E067444C4401338019AB4200D1F8
:1016100073E782B27F2A08D8A2B27F2A05D805498B
:10162000E2018846029942441154002FEADA5744F5
:10163000EAE7C046A81E0220F0B54E464546DE4603
:101640005746E0B58DB01D0016AB40CB04001B78AB
:1016500001960093A94264D80820774B1B88C31ACF
:101660009846FF23300C9C4618404346D8406746B6
:10167000C3B20793330A3B404746FB40DFB20497AF
:1016800067463E404746FE40B246F6B2B1466B4E14
:101690000004B04636781B060996464676781B0C41
:1016A00008964646B67805964646F678A846B34666
:1016B000FF263604304018435646634633401843ED
:1016C0005F4B02901B68A0B2039306908BB29442CA
:1016D00022D8009D18B2C001CF01002D28D1D945D4
:1016E00041D08FB27F2F39D8049D059E069FB54209
:1016F00053D026008C469A46B5B27F2D05D83DB210
:10170000039B02992D18AD00E95001370136BFB295
:10171000B242F1D261465346013301319BB2414599
:10172000D5D90DB0F0BCBB46B246A946A046F0BD27
:1017300088B27F280DD843488446BC4420006646C2
:1017400085B27F2D01D8019D355401308242F7D2F8
:10175000E2E7200001309042FCD9DDE720000130B3
:101760008242FCD2D8E7049D059EB54227D08FB2B5
:101770007F2F5CD826008C469A46069FB5B27F2DF7
:1017800005D83DB2039B02992D18AD00E9500137F1
:101790000136BFB2B242F1D2BCE726008C469A466F
:1017A000B5B27F2D05D83DB2039B02992D18AD002F
:1017B000E95001370136BFB2B242F1D2AAE7079D24
:1017C000089E069FB54218D08DB2AA4625000A9100
:1017D0000B93AEB27F2E08D856467F2E05D83EB268
:1017E000039B02993618B600F15001370135BFB29C
:1017F000AA42EED20A990B9B8EE78DB2AA4625002B
:101800000A910B93AEB27F2E0BD856467F2E08D886
:10181000099E002E05D13EB2039B02993618B600F0
:10182000F15001370135BFB2AA42EBD2E2E7200006
:1018300001308242FCD26FE78A030020B0140020FE
:101840008C030020A81E0220104B30B519684A07EF
:10185000D30F002A17DA012208608025ED01ED1A66
:101860006C089B00CB18E400E4181860586008333B
:101870009C42FAD101232C009C43A318A54201D01D
:101880009B00585030BD0022E7E7C0468C03002083
:10189000802210B500210248D20106F077FD10BD6C
:1018A000A81E022083B27F2B06D88BB27F2B03D8D1
:1018B000024BC90159180A547047C046A81E02209D
:1018C00010B5FFF7EFF810BD054B10B59C4660440E
:1018D0004342584180004118024800F0CFF910BD42
:1018E0000000D0AFBBDD02200B4B10B59C4660441E
:1018F00043425841094A840082B0009208482200BD
:10190000E31C00F06DF9844202DC001B02B010BD44
:1019100001204042FAE7C0460000D0AFA4B3001057
:10192000BBDD0220054B10B59C4660444342584144
:1019300080004118024800F025F910BD0000D0AF2A
:10194000BBDD0220F0B5D6464F4646468846C0B5B8
:101950000524060000F000F943461F791C57284B68
:101960008146F01843425841264B9A4683009C46D4
:1019700053466246985801222023BA40DB1B013AA5
:10198000002C32DB9C422DDCA2401500104229D1F4
:10199000002F1AD043465A78197812021143424652
:1019A0009B78D2781B040B4312061A439046002200
:1019B00041465300C95A4B0B00D109191319123370
:1019C0009B00013299519742F2D853466246054333
:1019D0009D50484600F0CCF82000E0BCBA46B14625
:1019E000A846F0BD084804F0B5F8002B02DAF9E784
:1019F000013BF7D315009D401C000542F8D1C7E715
:101A00000000D0AF98100020C8B3001010B504003B
:101A100000F0A2F8094B0021E3185A425341084A4A
:101A20009B00995000231A00123292001351013387
:101A3000202BF8D100F09CF810BDC0460000D0AFBC
:101A400098100020F0B54E464546DE4657468A4679
:101A50004900E0B50D0080465544ED0045448946F7
:101A6000290009AC2678DC31741EA641086874424E
:101A7000844614481F26834626405E44052B0CD915
:101A8000A0201F274005D835540104430532053BEB
:101A90000C603A402E60052BF6D849465144C900E7
:101AA000414452019B0613430A000800DC321360D4
:101AB0006346D83006601360F0BCBB46B246A94608
:101AC000A046F0BD80E00000F0B501258D4004681F
:101AD000AC434D0004606C18E40004192600C836BD
:101AE000002B2AD01F68DC3437605F6877609F68FE
:101AF000DB68B76023606D18EB001D008024D035D3
:101B0000451964012C4380252D0625602560114C64
:101B10000D1D8C40846001242700AF403D0008313A
:101B20008C401F2106680A403543056005682C4338
:101B30000460C018D8300260F0BD80277F02376093
:101B4000F8277F027760C027DC343F03B76023604B
:101B5000D1E7C04601010101EFF3108072B6034ADC
:101B60001368002BFCD0BFF35F8F70472C0100D0AF
:101B7000BFF35F8F0022024B1A6080F3108870471A
:101B80002C0100D0CB08C25C0723012019408840FB
:101B90001040431E9841C0B27047C04670B5EFF385
:101BA000108C72B60D4D2B68002BFCD0BFF35F8FED
:101BB0000724CB08C618C05C01230C40A3401C00BE
:101BC0000440034207D103433370BFF35F8F2C609F
:101BD0008CF3108870BD100003F0BCFF2C0100D006
:101BE000F8B54746CE46884680B5EFF3108C72B6FE
:101BF000214D2C68002CFCD0BFF35F8F9A422CD86B
:101C0000D4080727055D061901241740BC402C4263
:101C10001FD007210127894609E0D408055D061970
:101C20004C4639001440A1400C00294211D0013229
:101C30009342F2D201204042BFF35F8F00220E4B4D
:101C40001A608CF3108800280FDBC0BCB946B04680
:101C5000F8BD2C4310003470EEE7BFF35F8F002314
:101C60002B608CF31088012040424346002BECD0BF
:101C7000089803F06FFFC0462C0100D030B5EFF399
:101C8000108C72B60A4C2368002BFCD0BFF35F8F18
:101C900007230122CD0819408A40435D93434355F1
:101CA000BFF35F8F002323608CF3108830BDC046E4
:101CB0002C0100D0024B18688007C00F7047C04647
:101CC00000C006400021044B044ABFF35F8F02C3EB
:101CD0009342FAD17047C046000100D0800100D085
:101CE000044A1078431CDBB2172B00D91023137061
:101CF0007047C0469003002000B5054B83B001003B
:101D0000009318221F230348FFF76AFF03B000BDAA
:101D1000DCB30010CC150020094A83009446402211
:101D2000634410B51C68C0006240C0241440802287
:101D3000520113431C60034B9C466044416010BD3C
:101D400004C00140004001400123D022834012061C
:101D500093629361094A8300944640226344196860
:101D6000C0004A40C0211140802252011343196033
:101D7000034B9C46052360444360704704C0014008
:101D80000040014001238340002904D0034A13602E
:101D9000034A13607047034A1360FBE780E200E0E8
:101DA00000E100E080E100E001238340014A13608C
:101DB0007047C04600E200E0084B10309B6880008E
:101DC000C358002B07D0064A00209B1A2F229A42A4
:101DD0004041C0B270470020FCE7C04600ED00E083
:101DE00094030020024B10309B688000C05870475D
:101DF00000ED00E070B50D00EFF3108672B60F4AEB
:101E00001368002BFCD0BFF35F8F0D4B10309B6825
:101E100084001B590B4A934203D09D4201D003F02A
:101E2000B7FE074B9B681D51BFF35F8FBFF35F8FFA
:101E30000022024B1A6086F3108870BD240100D086
:101E400000ED00E0CD010010F0B557464E46DE46ED
:101E50004546E0B585B0060002911700EFF3108B00
:101E600072B6674A1368002BFCD0BFF35F8F002562
:101E7000644B5D579A46002D00DAA5E06B00624C7A
:101E800003935B199B009846A146C1444B465246BA
:101E90009B79103613705D4BB2009B680192995884
:101EA0000B1B2F2B34D95A4B994200D0A5E0039B32
:101EB000584A9C46584B6544AD0063534346023331
:101EC0006519E418554B0121043B1B1B1B055B0DD9
:101ED00013436B80524BEF71AB80FF23AB71029BBE
:101EE000AB604B460B431900484B019A9B689950D5
:101EF000BFF35F8FBFF35F8F0022414B1A608BF3FC
:101F0000108805B0F0BCBB46B246A946A046F0BD5D
:101F100001200A008243D379BB422FD845464E4662
:101F2000130040491B1B5B415943090D3A4B635356
:101F30003A4B02356519043B5B1B1B05354D5B0DA8
:101F40002B4373800426B446E0444444131F1B1BF8
:101F50004C46A17102991B05A16049465B0D2B43BC
:101F6000A380314BE77101431360BDE75800C018EF
:101F700080002018C679BE422CD902000623D35611
:101F8000002BF3DA101D8246BD2000028046042695
:101F90007642B446E14450464E46361A3005400D6E
:101FA000824656461B48957106439680039A94468E
:101FB00065441D4AAD00641922604246A371029B2C
:101FC000A280E771A3608FE703F0E2FD002553468E
:101FD0005D5753E7101D82469088400500158446E2
:101FE0004046D444664604302018301AE0260005E6
:101FF000400D360230438046C9E703F0C9FD56E77D
:10200000240100D0BDDD02209403002000ED00E09B
:10201000CD01001000E0FFFF00A1FFFFC40300207E
:1020200000BDFFFFAAAA000001488047F0B5DE46C8
:1020300057464E464546E0B50C0083B0EFF3108A94
:1020400072B65A4A1368002BFCD0BFF35F8F102280
:10205000914681444A46564B96009B689D59554B84
:1020600098469D4205D0A54216D0534FEB1B2F2B0F
:1020700014D94F4B9B689D51BFF35F8FBFF35F8FA8
:1020800000224A4B1A608AF3108803B0F0BCBB46AA
:10209000B246A946A046F0BD1D00EAE701238340F1
:1020A0009B465A46454B1B681A4000925A46444B81
:1020B0001A60BFF35F8FFEF7D6F80190002803D0B7
:1020C000814501D003F064FD01232A009A439368FF
:1020D0009C4208D15FE04B005B189B00FB1899689D
:1020E000A14211D01A00062151560029F3DA009BB3
:1020F000002B05D05A46334B1A60304B1A60B8E7B4
:102100005A462F4B1A60B4E706215956002921DBA5
:102110004A00501880003C188046A0689860E0791A
:10212000D871062020569871002824DBA488F81A5C
:102130006405241544440019E0240005400D2402E0
:10214000204398805218204B9200BF181A781970BB
:10215000BA71CCE70199002910D1FF3191711B4967
:10216000918019490A789A71194ADB1B5B415A43DD
:10217000120D0A70BBE7BD200002E2E7154A1649BE
:10218000D21A083A5002400D01439980134952086F
:102190000A43DA80ABE70621515613000029B7DA6B
:1021A000019A002AEAD14546DBE7C046240100D067
:1021B00000ED00E0CD0100109403002000E100E0FC
:1021C00080E100E080E200E0BDDD022000BDFFFF15
:1021D000AAAA0000CE03002000F0FFFF00F8FFFFD6
:1021E000032310B50400074A18409446C0009C43DE
:1021F000FC3383406444226881409A4313000B43BC
:10220000236010BD00E400E0F8B50125040005439B
:10221000FEF729F8EFF3108C72B6214A1368002BF1
:10222000FCD0BFF35F8F1F4E2100B7681E4A1F4BC3
:10223000891A49414B431B0D59B28300F858A842F3
:102240001CD00623D3568B421CD01223D3568B426C
:1022500022D01E23D3568B4220D02A23D3560320CC
:102260008B4210D0124B1A781970A271BFF35F8F96
:1022700000220B4B1A608CF31088F8BDB2680D4831
:10228000D050EFE7002043001B189B00D218FF231B
:102290009371094B9380E5E70120F4E70220F2E710
:1022A000240100D000ED00E094030020AAAA000061
:1022B000BDDD0220CD01001000BDFFFF054B064A29
:1022C0001360064A136053609360D36013615361D7
:1022D000936170478080808000E400E004E400E0C7
:1022E000D02300B51B061B680100074883B0C01847
:1022F000064B002200930523FFF772FC002801DB48
:102300001F23181A03B000BDD8DC0220F8B3001058
:10231000024B9C46614489000160704740000034D4
:1023200083680B4810B58446614462440901120178
:102330009A18591854684B6801209C4201D802D061
:102340000020C0B210BD12680B689A42F9D8F7E7B6
:10235000FFFFFF0F074810B50268EFF3108172B658
:102360001368002BFCD0BFF35F8F01F071F80020E1
:10237000002110BDA45F0220F8B557464E464546E1
:10238000DE46E0B599460CAB1C780DAB1B78060019
:1023900090469A460768002C11D1BC7B002C42D095
:1023A00065003B682D19033D59194B78BB73002B11
:1023B00000D1FB7300238B704B700B7004E0650041
:1023C0003B682D19033D5919B2682A4B9446424681
:1023D000E3181B0163441A604A465A600A9A9A60DD
:1023E0000B9ADA6000238B704B700B707B7B9B46E3
:1023F000002B2BD022005946B8687B6898473A6872
:10240000002816D05B4658465B005B445519033BD9
:10241000A870D118D35C002B00D06B705B460C7099
:102420007B73A34513D0F0BCBB46B246A946A04679
:10243000F8BD5B465B005B44033BD3189C705119AD
:10244000525D002A00D05A705B460B707C73424686
:102450004B46307D00F0A4FB051E06D05346002BF2
:1024600003D12100306800F0BDFD0E9B002BDAD0B7
:102470001D70D8E7FFFFFF0FF0B5DE464E4657460A
:1024800045460023E0B58DB00A936B4B8200D358CC
:102490000B90994600239B464B46079300F030FB78
:1024A000079C06000F006268EFF3108572B6136890
:1024B000002BFCD022000794BFF35F8F2468637B5E
:1024C0009946002B67D092685C4B90464B441B01A9
:1024D000984443461A685B6810001900801BB94194
:1024E00000295FDD0B9800F05BFB00230026984677
:1024F00000279A46079C6368BFF35F8F5A461A60AD
:1025000085F310885346002B08D10028C6D10DB0A2
:10251000F0BCBB46B246A946A046F0BD0A9B414668
:1025200018024B461843D047089009916268EFF3B0
:10253000108572B61368002BFCD00794BFF35F8F31
:102540000899099A002A48DB114303D0079B1B69AD
:10255000002B5DD1079B1B68D97B002907D04A005F
:10256000521819688C4649466244033A51704A46EB
:10257000DA734B46079A013BD168CA5C0132CA54F0
:102580005B46079A13615368BFF35F8F5A461A6020
:1025900085F3108882E700230026984600279A4694
:1025A0000020A7E7002901D100289BD100212000AD
:1025B00000F09AFC43461E685F689B68079A9A463B
:1025C0004346DB689846D3684B44013B1B780A932B
:1025D0001B020343136100208CE72369002BB9D051
:1025E00033003C005B1A94411A002300A74219D81B
:1025F0009F421BD059460491012103914946029103
:1026000041460191514607980091FFF7B5FEB7E7A3
:1026100000F076FA089A099B06000F0092197B4198
:102620009942E5D901225242D317E3E79642E1D914
:1026300001225242D317DDE7185F0220FFFFFF0F90
:10264000F8B557464E464546DE46E0B5404D814614
:102650008A466A68EFF3108872B61368002BFCD0C4
:10266000BFF35F8F2E68B47B002C39D067003368CE
:102670003F19033FDB195A78B273002A00D1F27375
:10268000A968344A8C464946A21812016244116076
:1026900051465160304991600021D1609970597064
:1026A0001970737B9B46002B35D022001900B0684F
:1026B000736898473268002820D05B4658465B0014
:1026C0005B44D719033BB870D118D35C002B00D002
:1026D0007B705B460C7073735C451DD0002626E052
:1026E0006B68BFF35F8F1C6088F310880120404245
:1026F000F0BCBB46B246A946A046F8BD5B465B00AF
:102700005B44033BD3189C70D119D25D002A00D0E2
:102710005A705B460B7074734A465346287D00F02E
:102720003FFA061EDAD02100286800F05BFCEB6857
:102730001B19013B19786B68BFF35F8F00221A6089
:1027400088F310880020002ED2D108022043CFE762
:10275000DC030020FFFFFF0F5523001010B5124CC3
:102760006368002B04D00A211048FFF7D1FD10BD8B
:1027700023000F4A1021206800F0D4FA032000F053
:10278000B3F9032000F07CFA03200A4900F0C2F9F3
:10279000FFF7A6FA084B9C46032360442375074BBA
:1027A00080006060DC60DEE7DC030020A45F0220C4
:1027B000212300107924001040000034185F02200B
:1027C00000487047DC030020F0B557464E464546AA
:1027D000DE46E0B585B0019310AB1B78060003938D
:1027E00000239A46984600927268EFF3108972B6F9
:1027F0001368002BFCD0BFF35F8F3568AC7B002CD7
:1028000049D067002B683F19033FDB195A78AA7338
:10281000002A00D1EA73B1684F4A8C4600980199AA
:10282000A21812016244106051600E9991600F99D4
:10283000D16042469A705A701A706B7B9B46002B8F
:1028400045D022001900A8686B6898472A680028BC
:1028500030D05B4658465B005B44D719033BB870E9
:10286000D118D35C002B00D07B705B460C706B736F
:102870005C452DD0F3681B19013B18787368BFF3D2
:102880005F8F42461A6089F310885346002B2CD183
:102890000002204307E07368BFF35F8F1C6089F379
:1028A00010880120404205B0F0BCBB46B246A946A4
:1028B000A046F0BD5B465B005B44033BD3189C70B5
:1028C000D119D25D002A00D05A705B460B706C7330
:1028D000307D009A019B00F063F982460028C9D040
:1028E0002100306800F07EFBC4E7039B002B30D052
:1028F0000E9B00200F999847030004000D000B4326
:1029000027D000290DDA0098019902000B00121B54
:10291000AB41994213D818D000920193039B9A4679
:1029200062E700F0EDF802000B00A4185D4100948E
:102930000195A94203D8F1D100998A42EED9012329
:102940005B42DC1700930194E8E700999142E3D9D8
:10295000F5E70020A7E7C046FFFFFF0FF8B5CE461A
:10296000474680B506000C00FFF76AFE00280CDC25
:102970002D4B0020596A8C4203D89B6A0130B34228
:1029800045D3C0BCB946B046F8BD20BF274D6A68E4
:10299000EFF3108772B61368002BFCD0BFF35F8F84
:1029A0002B68C1B29C465B7B8B4235D0FF23034032
:1029B0005A00914662461268994490464A464244FB
:1029C000033A9278002A1DD0EA68000A90464344F0
:1029D000013B1B78C0B2834221D06B68BFF35F8F8D
:1029E00000221A6087F310880F4A0020536A9C4225
:1029F000C7D8926A0130B242C3D2E01A421E904157
:102A0000C0B2BEE72B699842E7D12A61E5E7601AB8
:102A1000431E9841C0B2B4E7FF230340D4E76046A9
:102A200000F0E0FAD9E7C04600400540DC03002092
:102A3000F0B5D6464F464646C0B5EFF305833F2274
:102A4000134018001038EFF3108C72B6204D2A682E
:102A5000002AFCD0BFF35F8F0122110081401D4C82
:102A6000884661631C4917000E788A463100C140D0
:102A70000F400A4209D1BFF35F8F2F608CF310889B
:102A8000E0BCBA46B146A846F0BD14498200646A6B
:102A900051588C420FD3124BD25843469E43534653
:102AA0001E70BFF35F8F00232B608CF31088002A09
:102AB000E6D09047E4E70B4A9B00904643441A68EF
:102AC0001A60BFF35F8F00232B608CF31088D7E769
:102AD000280100D000400540C0DD0220B05F022088
:102AE000A0140020D03F054010B50100024A034861
:102AF000FFF754F810BDC04614B40010BCDD02202E
:102B0000034B596A0A00986A596A8A42FAD1704797
:102B10000040054070B504000D00EFF3108672B65A
:102B20001A4A1368002BFCD0BFF35F8F002D1BD017
:102B30002000FFF757F9164981420AD02000FFF71D
:102B400059F901212000FFF71DF90123A340114A83
:102B50001360114BA400E550BFF35F8F00220B4BB5
:102B60001A6086F3108870BD0B4BA200D55001226D
:102B7000A2400A4920000B7893430B700449FFF7E9
:102B800055FA00212000FFF7FDF8E5E7280100D005
:102B9000312A001038600540A0140020C0DD02205A
:102BA000F0B54F46D6464646C0B507002F4C616A81
:102BB0000D00A66A616AA942FAD18B4208D805D0F5
:102BC0000120E0BCBA46B146A846F0BDB242F7D9F2
:102BD000EFF3108A72B6264801680029FCD0BFF3D3
:102BE0005F8F0125BD402349204C884609788946DE
:102BF0002943C9B28C46414660460870391D1E48BB
:102C0000890065630A51B9000B50216A00202942EE
:102C100019D0616A0800A66A616A8142FAD18B42C2
:102C200019D801D1B24216D8CC451DD00F4B1F2068
:102C30001D625D6301230740BB40104A1E381360CC
:102C400043464A461A70BFF35F8F0022084B1A6052
:102C50008AF31088B5E70020BFF35F8F0022044B92
:102C60001A608AF31088ACE70120ECE700400540C9
:102C7000280100D0C0DD0220B05F022080E200E029
:102C8000EFF3108C72B60A490B68002BFCD0BFF32F
:102C90005F8F01238340074A0748136202789A43F3
:102CA0000270BFF35F8F00230B608CF310887047B6
:102CB000280100D000400540C0DD022070B50500AD
:102CC00014001600002915D00C00002A12D08068CC
:102CD0006B689847296800280ED073009B19620022
:102CE000033B1219CB18033A9C7088188A5C002A9F
:102CF00015D10670200070BD63001B197200033BE4
:102D00009219CB18033A9E7088188A5C002A02D167
:102D100004703400EEE75A7004703400EAE75A7029
:102D20000670E7E730B583600023CCB2437301330C
:102D3000047342608373C4730D000068012C06D9CC
:102D4000421C0133DBB2137003329C42F9D1FF21E4
:102D500029404B005918002340180338437030BDF8
:102D6000F8B5CE46474606000C0080B5002907D0CE
:102D70004D0003686D18033D5A195778002F04D190
:102D80002000C0BCB946B046F8BD7900C919033966
:102D900088464344597889460021597051707368B8
:102DA0003A002100806898473368002814D04246D2
:102DB0009A18947059195B5D002B00D053700F70F6
:102DC000270049463000FFF7CBFF390002003000F2
:102DD000FFF774FF0400D3E7424641465D19AF7028
:102DE0009A185B5C002B00D06B701470E9E7C0464A
:102DF000F0B557464546DE464E46E0B50D006B0041
:102E000001685B19DF1E0400C85D83B00192CA1916
:102E100000284CD043001B18033BCB185E78B44607
:102E2000002E16D1019E002E3ED0E67B002E04D04F
:102E300073009B19CB18033B5D70E57300282FD1FD
:102E40000023537003B0F0BCBB46B246A946A0466F
:102E5000F0BD72006244033A89184A789046002215
:102E60004A7091465A70010032002000FFF726FF99
:102E700043468246002B07D05B0021684344033B56
:102E8000CB185A78002A16D1424651462000FFF747
:102E900015FF2168019BCA19002BC6D10028CFD08D
:102EA00043001B18033BCB1800219970C8E7019B16
:102EB000002BBAD1C4E750008018033809184878AD
:102EC000834648464870587041462000FFF7F6FE9A
:102ED000594680462000FFF743FF4146020020008C
:102EE000FFF7ECFE8046CFE7F0B557464546DE4695
:102EF0004E46E0B583B00191457B04006B0000684D
:102F00005B19DF1EC15DC21900294ED04B005B1852
:102F1000033BC3185E78B446002E18D1019E002EE4
:102F200040D0E67B002E04D073009B19C318033BEE
:102F30005D70E573002931D100232800537061735F
:102F400003B0F0BCBB46B246A946A046F0BD720035
:102F50006244033A801842789046002242709146BB
:102F60005A7020003200FFF7A9FE43468246002B2C
:102F700007D05B0021684344033BCB185A78002AF2
:102F800017D1424651462000FFF798FE019B0100F1
:102F90002068C219002BC4D10029CDD04B005B188A
:102FA000033BC31800209870C6E7019B002BB8D1E3
:102FB000C2E750008018033809184878834648460D
:102FC0004870587041462000FFF778FE5946804609
:102FD0002000FFF7C5FE414602002000FFF76EFE0D
:102FE0008046CEE770B5040000292CD0437B8B428D
:102FF0002ED0056848004018033828188278002A27
:1030000021D053009B18033BEA5CEE188A4202D1A0
:103010001BE0002A08D053009B18033BEB185A789A
:103020008A42F6D142785A7000230122837043709D
:103030002000FFF7DDFE617B02002000FFF73EFE6F
:103040006073012000E0002070BD43783370EBE72F
:1030500001221900FFF7CCFE60730120F4E7C0469F
:1030600010B50400FEF73CFE01002000FFF750F908
:1030700001235B426360BFF35F8F10BD10B5040096
:10308000FEF72EFE01002000FFF742F901235B420C
:10309000636000232372BFF35F8F10BD10B504007F
:1030A0000120FEF729FE044B9C466044800020600E
:1030B000BFF35F8F10BDC0464000003410B5010063
:1030C0000148FEF7DBFD10BDB4DD022000B5054B65
:1030D00083B00100009300220B230348FEF780FD1C
:1030E00003B000BD38B40010B4DD022010B50100FB
:1030F0000148FEF747FD10BDB4DD02207047C04611
:103100000B4A13681868203080F30988022080F386
:103110001488BFF36F8F3FBCAE4608BC04BC62B6D8
:103120001847C046C046C046C046C046C046C04616
:10313000305F0220000000000000000000000000DE
:10314000EFF30980164B1A6820381060F0C044462F
:103150004D4656465F46F0C00D221207146E556E5E
:10316000566F176F3038F0C008B572B601F0BAFE6E
:1031700062B60CBC116808681030F0C8A046A946B9
:10318000B246BB4680F309880D2212073038F0C8DA
:103190001466556656671767F0C81847C046C0469C
:1031A000305F0220D02300B51B061A6D83B0D20712
:1031B00004D501219A6D1A6D1142FBD1D023FF2253
:1031C0001B061A650023124901930A68EFF3108C5D
:1031D00072B61368002BFCD0BFF35F8F00230D483D
:1031E000096802680360BFF35F8F0B608CF310887F
:1031F000094B0A48196801AB02F0B4FB019B002B94
:1032000003D08022064B52051A6003B000BDC046B1
:103210002C5F0220E0DC022048DD0220A9370010EC
:1032200004ED00E010B502F0ADFCC04610B58024FE
:10323000031F64041C60043B19600349043B1960CC
:10324000143B40381A6010BD253200108022044B18
:1032500052051A60BFF34F8FBFF36F8F7047C046A0
:1032600004ED00E072B6044A136801331360BFF343
:103270004F8FBFF36F8F7047DCDC0220094A136861
:10328000013B1360002B0CD1074A1168002907D0BD
:1032900006480068BFF35F8F0B6080F310881360EF
:1032A00062B67047DCDC0220945F0220C0DC0220A2
:1032B000EFF3108072B6704780F310887047C046F5
:1032C00010B5FFF7F5FF040001F0FAFD002803D068
:1032D0008022034B52051A602000FFF7EDFF10BD5E
:1032E00004ED00E0002310B5074A084C05202360D8
:1032F000136002F0B1FD642104F0B8F9044B013809
:1033000018600723236010BD18E000E010E000E023
:1033100014E000E0FF22224B1204196810B50A43A2
:103320001A60FF220220196812060A431A601D491A
:10333000404202F02BFB01201B49404202F026FBD9
:1033400005201A49404202F021FBFFF7CBFF002283
:10335000174B1A60D0231B06164A19681170FF22FA
:103360001A651A6DD20704D501219A6D1A6D1142A2
:10337000FBD1D0231B061C68FF210F342000FEF771
:103380002FFF20000C49FEF735FD01212000FEF73C
:10339000F9FCFFF7B5FE01F0A5FD02F0F3FBC04616
:1033A00020ED00E041310010C1320010FD3000106E
:1033B000DCDC022004040020A531001010B5D0246C
:1033C000084B240620681B78834200D010BDFCF710
:1033D0004AFF002803D023684000C018F6E701F038
:1033E000F1FFF3E70404002000B5144B83B01A7812
:1033F000D0231B061B689A4209D00368BFF35F8F76
:1034000000221A6081F3108820BF03B000BD03685A
:103410000B4A13600B4A11600B4A02219446634425
:103420009B10FF319940094B0122186801235B4230
:103430000093090A002300F013F9E6E704040020D2
:10344000945F0220C0DC022000FFFF2F48DD022035
:103450002C4A03689446022230B563449B10FF3225
:103460009A40294B83B01C78D0231B061B68120A94
:103470009C421FD040BF254D03682C68A34235D025
:103480002368002BFCD0BFF35F8F214B1C682243C5
:103490001A602B68BFF35F8F00221A600368D02088
:1034A000002200064265BFF35F8F1A6081F3108827
:1034B00003B030BD40BF0368BFF35F8F00201860CA
:1034C00081F31088EFF30583DBB2002B13D0114B8F
:1034D00001901968104801AB02F044FA019B002BDF
:1034E000E6D080220D4B52051A60E1E708480468D7
:1034F00022430260D3E7074B1100186800F00CF973
:10350000D6E7C04600FFFF2F040400202C5F0220F6
:10351000E0DC022048DD0220A937001004ED00E0C5
:10352000F0B5CE46474680B51D00334B14001A78DF
:10353000D0231B061B688146884683B09A420FD071
:103540000368BFF35F8F00221A6081F310882000A8
:103550002900FFF703FA03B0C0BCB946B046F0BD7E
:10356000FFF7CEFA22002B000127121A8B41234EBF
:103570007F42B6185F41002F1FDC1BD04B461B68F3
:10358000BFF35F8F00221A6088F310881C4B5A6AC1
:10359000954205D89B6A0120A342DCD29542DAD13C
:1035A0008022184B52051A60BFF34F8FBFF36F8F05
:1035B0000020D0E7144B9E42E0D9002330003900B0
:1035C000124A04F079F8031ED8D04A4640461268E1
:1035D0000F490A600F4908600F498C460221624476
:1035E0009210FF3191400D4A090A106800930122A0
:1035F000002300F035F8C9E704040020F0D8FFFFED
:103600000040054004ED00E00F27000010270000F7
:10361000945F0220C0DC022000FFFF2F48DD022063
:1036200010B5FEF75DFB054B9C46054B60448000E2
:10363000186000F009F8034B186010BD400000341A
:103640002C5F022048DD022010B5182002F0C2F9DC
:10365000041E03D0002308C000F0ECF8200010BDC9
:10366000F0B5C646060000B50D0090461F0001F0FB
:1036700011FB3468002F0AD125420CD04346002BA1
:103680000CD02300AB43336001F00CFB08E02B00AF
:1036900023409D42F2D0069B002B05D101F002FB96
:1036A000200080BCB846F0BD4346002B16D18021D7
:1036B0000023C904002F00D11900069A2943301DA8
:1036C00001F0A8FC01F0EEFA00281CD001F03CFF4C
:1036D0000400830107D52402240AE1E7A021802306
:1036E000C9045B04E6E7FFF7BDFD3468002F0DD188
:1036F0002C4205D04346002B02D02300AB4333605D
:10370000FFF7BCFDE7E7FFF7A1FDDFE723002B4054
:103710009D42F5D1EEE7C046F8B5DE4657464E4627
:103720004546E0B505000F00060001F0B3FA296830
:103730002C6939430C362960A6422AD000239846CA
:103740008023DB049B4680235B049A4680239B04F2
:1037500099460EE019420AD057463A4202D04246F4
:103760001A4390464B46194301F080FD2968A64252
:103770000DD020005F460268646813021B0A3A42BB
:10378000E8D00F001F409F42E6D0A642F1D1434649
:103790009943296001F086FA2868F0BCBB46B2461E
:1037A000A946A046F8BDC046F8B5DE4657464E4687
:1037B0004546E0B505000F00060001F06BFA2968E8
:1037C0002C6939430C362960A6422AD0002398463A
:1037D0008023DB049B4680235B049A4680239B0462
:1037E00099460EE00B420AD057463A4202D0424672
:1037F0001A4390464B46194301F038FD2968A6420A
:103800000DD020005F460268646813021B0A3A422A
:10381000E8D01F000F40BB42E6D0A642F1D143469C
:103820009943296001F03EFAF0BCBB46B246A94676
:10383000A046F8BD0300083301224360C360036162
:1038400000235242826003607047C0460023036138
:103850007047C04643689A684B608A609A685160B6
:10386000996003680861013303607047030030B555
:103870000C680833621C0DD01A005B681D68A542F5
:10388000FAD94B60996003688A600133516008611E
:10389000036030BD02695368F3E7C04603694168BD
:1038A00082688A6051605968814206D000220261B4
:1038B0001A68013A1A60186870475A60F6E7C046FD
:1038C00070B505000E00002843D00B0C020C002B35
:1038D00031D1331C002A32D1300068430300493310
:1038E00037D8483002F076F8041E32D00300002E9C
:1038F00000D048332360E5632664FFF7B3FC216CF6
:10390000E36B22684B43D018A06000205B1AD318E9
:103910006260E3604422FF23A0632000A3540132CD
:10392000A3541030FFF786FF20002430FFF782FFFA
:10393000FFF7A4FC0EE0002A0BD11A1C031CB0B246
:10394000A9B2414398B293B24343090C5B181B0CD4
:10395000C2D00024200070BDF0B5CE46474604001A
:10396000060080B585B0994601928846FFF77AFC3B
:10397000A36BE26B0025243693427CD34B46022B8B
:1039800000D1F2E0019B002B00D103E1002D00D11A
:10399000E7E0FFF773FC01F07DF9FFF763FC4422D9
:1039A000A35C5BB2013301D10023A3544522A35C85
:1039B0005BB2013301D10023A354FFF75FFC01A9DF
:1039C00002A801F0ABFC002800D0E7E0FFF74AFCBA
:1039D000A36BE26B934272D0FFF750FCFFF742FCFF
:1039E0004523E55C6DB2002D05DC13E0013DEBB233
:1039F0006DB2002B0ED0636A002B0BD0300001F0AB
:103A0000C9FB0028F2D0013D01F0C2FCEBB26DB25F
:103A1000002BF0D14523FF22E254FFF72FFCFFF7E4
:103A200021FC4423E55C6DB2002D16DD2700103724
:103A300004E0013DEBB26DB2002B0ED02369002BE8
:103A40000BD0380001F0A6FB0028F2D0013D01F0B8
:103A50009FFCEBB26DB2002BF0D14423FF22E25465
:103A6000FFF70CFC01F01EF90125FFF7FBFBA36B30
:103A7000E26B934282D2226CA56B002A79D04B462E
:103A80004146002B00D0FFE0606804F085FC226C0A
:103A900063689446A2686344636093426DD323686D
:103AA0000135A5636360636A002B6BD0200024306E
:103AB00001F070FB002865D0FFF7C8FB62E027002B
:103AC0001037FFF7DBFB3800019901F057FAFFF7D9
:103AD000C9FB4523E55C6DB2002D05DC13E0013D1B
:103AE000EAB26DB2002A0ED0636A002B0BD0300010
:103AF00001F050FB0028F2D0013D01F049FCEAB290
:103B00006DB2002AF0D14523FF22E254FFF7B6FB45
:103B1000FFF7A8FB4423E55C6DB2002D05DC13E044
:103B2000013DEAB26DB2002A0ED02369002B0BD002
:103B3000380001F02FFB0028F2D0013D01F028FCF5
:103B4000EAB26DB2002AF0D14423FF22E254FFF71B
:103B500095FB01F0A7F8002886D1FFF777FB012538
:103B600083E702A801F0CEFB13E7226CA56B002AC5
:103B70005ED12668002E00D178E00135A563636A26
:103B8000002B93D1FFF77AFB012005B0C0BCB946EA
:103B9000B046F0BDFFF772FB0020F6E7FFF762FBCF
:103BA0004523E55C6DB2002D16DD2600243604E0C9
:103BB000013DEAB26DB2002A0ED0636A002B0BD031
:103BC000300001F0E7FA0028F2D0013D01F0E0FBFF
:103BD000EAB26DB2002AF0D14523FF22E254FFF78A
:103BE0004DFBFFF73FFB4423E55C6DB2002D16DD76
:103BF0002600103604E0013DEAB26DB2002A0ED074
:103C00002369002B0BD0300001F0C4FA0028F2D059
:103C1000013D01F0BDFBEAB26DB2002AF0D14423B0
:103C2000FF22E254FFF72AFB01F03CF80020ACE74A
:103C30004146E06804F0B0FBE168236C5A42CB1ABD
:103C40002168E3608B4207D2A3689C466244E2602D
:103C50004B46022B00D090E7002D00D08EE70123C9
:103C6000A363636A002B00D18CE71FE7A0680135CE
:103C700001F0F8FBA563636AA660002B00D015E78E
:103C8000002800D018E77DE7E06804F085FBE168D4
:103C9000236C5A42CB1A2168E3608B42D8D2D3E717
:103CA00070B5482001F096FE041E29D0002501239E
:103CB0000060C3630564FFF7D5FA216CE36B2268EB
:103CC0004B43D0185B1AD3186260E3604422FF2391
:103CD000A0602000A563A3540132A3541030FFF765
:103CE000A9FD20002430FFF7A5FDFFF7C7FA002348
:103CF000002200212000A5602560E560FFF72CFE72
:103D0000200070BDF0B54F46D6464646C0B504000B
:103D100099460F009046FFF7CBFAE36B0500A06BC6
:103D200098422DD34B46022B09D000242800FFF7E0
:103D3000C3FA2000E0BCBA46B146A846F0BD452310
:103D4000226CE65CA36BA36B76B29A46002A20D065
:103D50003900E06804F020FBE168236C5A42CB1A7A
:103D60002168E3608B4206D2A3689C466244E2600D
:103D70004B46022B10D15346002B0FD101330DE0DF
:103D80004523226CE65CA36BA36B76B29A46002AAD
:103D900016D12768002F33D053460133A363731C19
:103DA00004D1636A002B1DD10124BFE701F082F822
:103DB0008642F9D24523013676B2E6540124B5E7AE
:103DC0004B463900002B22D1606804F0E5FA226CE2
:103DD00063689446A268634463609342DCD32368BB
:103DE0006360D9E72000243001F0D4F90028DBD04B
:103DF0004346002BD8D0012342460124136095E7A7
:103E0000A06801F02FFB5346A7600133C6E7E068C6
:103E100004F0C2FAE168236C5A42CB1A2168E360CD
:103E20008B42A5D2A0E7C046F0B5CE464746040077
:103E300080B585B088460192FFF714FAA56B002D76
:103E400000D01FE1019B002B00D1CBE0260002A88F
:103E500001F058FA44272436FFF710FA00F01AFF51
:103E6000FFF700FAE35D5BB2013301D10023E355B4
:103E70004522A35C5BB2013301D10023A354FFF7B9
:103E8000FDF901A902A801F049FA002855D1FFF770
:103E9000E9F9A36B002B00D0ACE0FFF7EFF930009D
:103EA000019901F06BF8FFF7DDF94523E55C6DB290
:103EB000002D05DC13E0013DEAB26DB2002A0ED000
:103EC000636A002B0BD0300001F064F90028F2D0B7
:103ED000013D01F05DFAEAB26DB2002AF0D145234E
:103EE000FF22E254FFF7CAF9FFF7BCF91023994605
:103EF000E55DA1446DB2002D05DC13E0013DEAB2A1
:103F00006DB2002A0ED02369002B0BD0484601F079
:103F100041F90028F2D0013D01F03AFAEAB26DB25F
:103F2000002AF0D1FF23E355FFF7A8F900F0BAFE0D
:103F300000284ED1FFF78AF94BE0FFF793F94523AC
:103F4000E55C6DB2002D05DC13E0013DEAB26DB217
:103F5000002A0ED0636A002B0BD0300001F01AF952
:103F60000028F2D0013D01F013FAEAB26DB2002A46
:103F7000F0D14523FF22E254FFF780F9FFF772F9F1
:103F800010239946E55DA1446DB2002D05DC13E0D8
:103F9000013DEAB26DB2002A0ED02369002B0BD08E
:103FA000484601F0F7F80028F2D0013D01F0F0F9A1
:103FB000EAB26DB2002AF0D1FF23E355FFF75EF9B4
:103FC00000F070FEFFF74EF9A36B002B0AD0FFF74D
:103FD00055F9FFF747F9A56B002D53D1019B002B35
:103FE00000D039E7FFF74AF9002005B0C0BCB94658
:103FF000B046F0BDFFF742F9FFF734F94523E55C21
:104000006DB2002D05DC13E0013DEAB26DB2002A6D
:104010000ED0636A002B0BD0300001F0BBF80028F3
:10402000F2D0013D01F0B4F9EAB26DB2002AF0D14C
:104030004523FF22E254FFF721F9FFF713F910237C
:104040009946E55DA1446DB2002D05DC13E0013D0C
:10405000EAB26DB2002A0ED02369002B0BD048467D
:1040600001F098F80028F2D0013D01F091F9EAB290
:104070006DB2002AF0D1FF23E355FFF7FFF800F0FF
:1040800011FEA6E7226C002A08D0E3689918A368FD
:10409000E16099420BD2404604F07EF9013DA563F0
:1040A0002369002B06D1FFF7E9F801209DE721687D
:1040B000E160F0E72000103001F06CF80028F2D049
:1040C000FFF7C4F8EFE7C046F0B5C646002304008A
:1040D000060000B584B098460191FFF7C3F8A36BC2
:1040E00000252436002B00D082E0019B002B00D15C
:1040F00040E1002D00D1D9E0FFF7C0F800F0CAFD83
:10410000FFF7B0F84422A35C5BB2013301D1002376
:10411000A3544522A35C5BB2013301D10023A35415
:10412000FFF7ACF801A902A801F0F8F800286ED159
:10413000FFF798F8A36B002B00D0C5E0FFF79EF8BF
:104140002368002B00D122E13000019900F016FF16
:10415000FFF788F84523E55C6DB2002D05DC13E020
:10416000013DEAB26DB2002A0ED0636A002B0BD07B
:10417000300001F00FF80028F2D0013D01F008F9FD
:10418000EAB26DB2002AF0D14523FF22E254FFF7D4
:1041900075F8FFF767F84423E55C6DB2002D16DD76
:1041A0002700103704E0013DEAB26DB2002A0ED0BC
:1041B0002369002B0BD0380000F0ECFF0028F2D070
:1041C000013D01F0E5F8EAB26DB2002AF0D14423D6
:1041D000FF22E254FFF752F800F064FD002800D1FE
:1041E000BCE00125FFF73EF8A36B002B00D17CE774
:1041F000013BA3632368002B00D1DBE02369002B84
:1042000000D0CDE0FFF73AF80123984657E0FFF7DA
:1042100029F84523E55C6DB2002D05DC13E0013D76
:10422000EAB26DB2002A0ED0636A002B0BD03000C8
:1042300000F0B0FF0028F2D0013D01F0A9F8EAB289
:104240006DB2002AF0D14523FF22E254FFF716F8A1
:10425000FFF708F84423E55C6DB2002D16DD27005A
:10426000103704E0013DEAB26DB2002A0ED0236996
:10427000002B0BD0380000F08DFF0028F2D0013D5C
:1042800001F086F8EAB26DB2002AF0D14423FF2291
:10429000E254FEF7F3FF00F005FDFEF7E3FFA36B2A
:1042A000002B07D0FEF7EAFF01259BE702A801F0EB
:1042B00029F821E7FEF7E2FF4346002B52D14046A2
:1042C00004B080BCB846F0BDFEF7D8FFFEF7CAFFC9
:1042D0004523E55C6DB2002D05DC13E0013DEAB23B
:1042E0006DB2002A0ED0636A002B0BD0300000F0B4
:1042F00051FF0028F2D0013D01F04AF8EAB26DB258
:10430000002AF0D14523FF22E254FEF7B7FFFEF763
:10431000A9FF4423E55C6DB2002D16DD27001037A0
:1043200004E0013DEAB26DB2002A0ED02369002BF1
:104330000BD0380000F02EFF0028F2D0013D01F034
:1043400027F8EAB26DB2002AF0D14423FF22E254EA
:10435000FEF794FF012500F0A5FC43E7FEF776FF8A
:1043600001253FE7FEF77EFF616A002907D1A068BB
:1043700001F0AAF8FEF782FF002398469FE7042188
:10438000236BA0681B68C91A01F09EF8F2E7FEF7DC
:1043900069FFA06801F01CF88046FEF76FFFD3E6C6
:1043A0002000103000F0F6FE002800D12AE7FEF7CA
:1043B0004DFF27E701F0D4F8A0601FE770B5002992
:1043C0000FD000260023424CDA00A5186D68854204
:1043D00000D16FE0002E05D001330A2BF4D13160FB
:1043E000706070BDA558002D61D05D1C092BF8D000
:1043F000EA00A6187668B0425CD0A658002E5DD0C0
:104400009D1C082BEDD0EA00A6187668B04251D06A
:10441000A658002E52D0DD1C072BE2D0EA00A618C9
:104420007668864246D0A658002E47D01D1D062B22
:10443000D7D0EA00A6187668B0423BD0A658002E26
:104440003CD05D1D052BCCD0EA00A6187668B042A2
:1044500030D0A658002E31D09A1D042BC1D0D500E3
:1044600066197668B04224D06559002D29D0DD1D2B
:10447000032BB6D0EA00A6187668B0421AD0A65828
:10448000002E1BD00135022BABD0EA00A6187668AF
:10449000B0420FD0A658002E10D0012BA1D0E36C53
:1044A000984212D0A36C002B9BD109234822A61856
:1044B00092E7D200A6183160706092E72B00A61830
:1044C0008AE71300D200A61886E74822A618F2E76A
:1044D000D80B002070B5050016000C00FEF7C2FED8
:1044E0004422AB5C5BB2013301D10023AB544522C3
:1044F000AB5C5BB2013301D10023AB54FEF7BEFECF
:10450000AB6B002B46D0FEF7ADFE4523EC5C64B2EE
:10451000002C16DD2E00243604E0013CE2B264B229
:10452000002A0ED06B6A002B0BD0300000F032FE58
:104530000028F2D0013C00F02BFFE2B264B2002A66
:10454000F0D14523FF22EA54FEF798FEFEF78AFEDB
:104550004423EC5C64B2002C16DD2E00103604E01F
:10456000013CE2B264B2002A0ED02B69002B0BD0C2
:10457000300000F00FFE0028F2D0013C00F008FFF0
:10458000E2B264B2002AF0D14423FF22EA54FEF7DB
:1045900075FE70BD280032002100243000F098FD27
:1045A000B1E7C046F0B5C646124B00B59846124D6D
:1045B000124F134E14E0FEF755FEFB68DC68201D19
:1045C000FFF76CF93368013B33602B68013B2B60CC
:1045D000FEF754FE206B01F037FA200001F034FAA8
:1045E0002B68002BE7D143461B68012BF8D9FEF757
:1045F0002DFEF5E7445F0220E8DC022090DD02207A
:10460000E4DC0220F0B55746DE464E4645464F4BA9
:10461000E0B51F6883B001371F60002F00D174E040
:104620004B4B9B465B4600221B6801929F425ED328
:10463000484B9C461B681B68002B54D000239846AF
:10464000454B464D9946464B00979A4638E04146C1
:1046500059611168013911609A6A002A0ED0D9692E
:10466000186A56688860186A4160190018318E42CD
:1046700067D0414699621168013911604A46D96A8A
:104680001268914201D94A4611608A00521892007C
:10469000AE18706887689860DF6087687C608460A7
:1046A0005E61AB580133AB5053461B68DB6A9942DD
:1046B00001D30123019363461B681B68002B12D0B2
:1046C00063461B680099DB68DB685A6891423AD3FD
:1046D0005A699868D9681C1D816048605068A0427A
:1046E000B5D15160B3E701235A465B4213601D4BBD
:1046F0001B68002B01D001230193019803B0F0BC8B
:10470000BB46B246A946A046F0BD124B164A1968F0
:1047100010681860116015490A6801320A601A6849
:104720001268002A06D10A4B9B4601235A465B4277
:10473000136077E71B68064ADB6893461B681360C3
:1047400070E7506095E75B461A60D0E7A4DD022071
:1047500058DD0220385F0220F4DC0220445F022092
:10476000305F0220B0DD02203C5F02205CDD0220D1
:10477000F8B5CE464746960080B5804630000D001D
:10478000994601F027F9071E00D1CBE0702001F017
:1047900021F9041E00D1CCE07022002103F0F6FDC7
:1047A0003200A5213800276303F0F0FD236B043E9F
:1047B0009C46072366449E43002D5FD034232A780D
:1047C000E2542B78002B56D035236A78E2546B786C
:1047D000002B50D03623AA78E254AB78002B4AD075
:1047E0003723EA78E254EB78002B44D038232A7937
:1047F000E2542B79002B3ED039236A79E2546B794D
:10480000002B38D03A23AA79E254AB79002B32D06E
:104810003B23EA79E254EB79002B2CD03C232A7A13
:10482000E2542B7A002B26D03D236A7AE2546B7A2D
:10483000002B20D03E23AA7AE254AB7A002B1AD068
:104840003F23EA7AE254EB7A002B14D040232A7BF0
:10485000E2542B7B002B0ED041236A7BE2546B7B0E
:10486000002B08D04223AA7BE254AB7B002B02D062
:104870004323EA7BE25443230022E254089D032DA4
:104880005DD8271D3800E5626564FEF7DFFF200074
:104890001830FEF7DBFF04235D1B4A46414630001B
:1048A0002461A5616462FEF7C1FC099B2060002BB6
:1048B00000D01C60FEF7D6FC414A424E136801331B
:1048C00013603368002B44D03F4B98461B68002B85
:1048D00037D0E26A3D4D3E490B6801330B603D4BDA
:1048E0001968914200D21A6093009B189B00E91846
:1048F0004A689068A260E060906847609760EA58F4
:1049000061610132EA50FEF7B9FC43461B6801259C
:10491000002B09D03368DA6AE36A9A4204D2FEF7C0
:1049200095FC01E001256D422800C0BCB946B046A7
:10493000F8BD0125380001F087F86D42F4E7032542
:104940009FE73368E26ADB6A934200D834601F4D08
:10495000C1E734601368012B04D01B4BE26A984610
:104960001A4DB8E7194D2800FEF764FF28001430EF
:10497000FEF760FF28002830FEF75CFF28003C307F
:10498000FEF758FF144B99461800FEF753FF134BE0
:1049900018009846FEF74EFF1148FEF74BFF1148EE
:1049A000FEF748FF1048FEF745FF4A460F4B1A60D6
:1049B00042460F4B1A60044BE26A98468BE7C046AA
:1049C000E4DC0220305F022078DD0220445F022018
:1049D000F0DC0220F4DC022020DD022034DD0220A5
:1049E00064DD022090DD02207CDD0220385F0220A1
:1049F0003C5F022070B50400FEF734FC234D002C10
:104A000036D0261D3000FEF749FFA36A002B03D0E5
:104A100020001830FEF742FF1D4A1368013313606F
:104A20002B68A34226D01B4A1368013B13601A4B24
:104A30001A681268002A17D01B68DB681A68174BBF
:104A40001A60FEF71BFC2B68A34205D0206B00F018
:104A5000FBFF200000F0F8FF114B1B68002B02D079
:104A60002B68A3420FD070BD0C4B013A1A60E8E7E7
:104A70002C68C6E731000B48FEF7ECFE0A4A1368C3
:104A800001331360DDE7FEF7E1FBECE7305F022066
:104A9000F0DC0220E4DC0220385F022058DD022036
:104AA00078DD022090DD0220E8DC0220F8B58020CD
:104AB000CE464746C00080B500F08CFF051E78D07A
:104AC000702000F087FF041E00D178E070220021E2
:104AD00003F05CFC8022A52128002563D20003F0AE
:104AE00055FCFF239B009C460723256B3822654419
:104AF0009D43554B261D63630023A3540B32A354DF
:104B00003000E3626364FEF7A1FE20001830FEF778
:104B10009DFE042300224D49A361280024616462A4
:104B2000FEF784FB4A4B20601C60FEF79BFB494A62
:104B3000494F1368013313603B68002B4BD0474B40
:104B400098461B68002B3ED0E26A454D45490B68EC
:104B500001330B60444B1968914200D21A609300F4
:104B60009B189B00E9184A689068A260E060906812
:104B700046609660EA5861610132EA50FEF77EFBBA
:104B800043461B68002B04D03B68DA6AE36A9A420A
:104B90002AD300F0A1FE01280BD172B60122334BBB
:104BA00052421A60434600221860314B1A60FEF7E9
:104BB000B1FB304B1B68C0BCB946B046F8BD2800FD
:104BC00000F042FFF5E73B68E26ADB6A934200D8F7
:104BD0003C60234DBAE73C601368012B07D01F4BA4
:104BE000E26A98461E4DB1E7FEF730FBD1E71C4D57
:104BF0002800FEF71FFE28001430FEF71BFE2800D9
:104C00002830FEF717FE28003C30FEF713FE1A4B43
:104C100099461800FEF70EFE184B18009846FEF74E
:104C200009FE1748FEF706FE1648FEF703FE164873
:104C3000FEF700FE4A46154B1A604246144B1A60B6
:104C4000064BE26A984681E749444C45A545001069
:104C50004CDD0220E4DC0220305F022078DD0220FF
:104C6000445F0220F0DC0220F4DC022058DD022048
:104C7000A4DD02200804002020DD022034DD022013
:104C800064DD022090DD02207CDD0220385F0220FE
:104C90003C5F0220024A1368013313607047C0462C
:104CA000ECDC0220F0B5DE46454657464E46E0B500
:104CB00083B0FEF7D7FA544D2B68013B2B602B686D
:104CC000002B62D1514B1B68002B5ED0504B984695
:104CD0001B68002B00D195E04E4B4F4E99464F4B31
:104CE0004F4F9A4600239B4601964346DB68DB689C
:104CF000D869196A9A6A8160486018005468183047
:104D0000844200D17CE059469962116801391160F2
:104D10005A699868D968546881604860181D84424F
:104D20006CD01168013911604946DA6A09688A4213
:104D300001D949460A609100891889008C467C187F
:104D400061688E689960DE608E68706088605C6102
:104D500063466146FB5801337B5053461B68DB6A50
:104D60009A421DD30123019A136043461B68002B0E
:104D7000BBD12C4B16001A681268002A1AD01B6887
:104D8000DB681A68284B1A6017E00024FEF776FAF1
:104D9000200003B0F0BCBB46B246A946A046F0BD19
:104DA00043461B68002BA0D11E4B019E1A68126857
:104DB000002AE4D11C4B013A1A601C4F3C68002CBD
:104DC00015D00123984608E0FFF71CFC002801D00D
:104DD00043463360013C002C08D02B68002BF3D0F5
:104DE0003B68013C01333B60002CF6D13C603368EA
:104DF000002BCAD0FEF72AFA0124C7E7516090E7DA
:104E0000516080E7044ED8E7ECDC0220E4DC0220AD
:104E100064DD0220F4DC0220B0DD0220305F0220DD
:104E2000445F0220385F022058DD022060DD02204E
:104E300070B5041E1DD0164A136801331360154B5C
:104E400000211E686F23144DA4192A682868D154C4
:104E50000430FEF723FD2B685C60A6420CD90F4B93
:104E6000186829680431FEF701FDFFF71BFF0028D1
:104E700001D1FEF7EBF970BD094B186829680431C0
:104E8000FEF7F4FC074B1A689442EED21C60ECE784
:104E9000ECDC0220A4DD0220305F02203C5F022017
:104EA000385F022058DD0220014B18687047C04669
:104EB000A4DD0220014B18687047C046E4DC0220E4
:104EC000064B10B51B68002B02D1FFF79BFB10BDF2
:104ED000034A0020136801331360F8E7ECDC02207A
:104EE00060DD0220204B30B51B68002B03D001226F
:104EF0001E4B1A6030BD1D4A1D4C136022681D49AF
:104F0000930098188000085800281BD1551EAB004C
:104F1000581980000858002813D1951EAB00581965
:104F20008000085800280CD1D51EAB00581980000D
:104F30000858002805D1043A9300981880000858B2
:104F400000E02A009B189B00CD1868680833406871
:104F5000CB186860984204D0C168074B1960226082
:104F6000C8E740686860F7E7ECDC0220B0DD0220AB
:104F7000F4DC0220445F0220305F022070B51F4D38
:104F80000C0029681831FEF771FC1D4B00211E68CA
:104F90006F232A682868D1540430FEF77FFC631C15
:104FA00017D02B68A4195C60A64206D9154B186867
:104FB00029680431FEF75AFC70BD134B1868296844
:104FC0000431FEF753FC114B1A689442F4D21C6072
:104FD000F2E70F4B29685A6890688A602968C860B0
:104FE00029689068043141602968043191602A6819
:104FF00053611A6801321A60DEE7C046305F022052
:10500000A4DD02203C5F0220385F022058DD022030
:105010007CDD0220802370B5274C15001B0622681A
:105020000B439361436822689968D36122681162D7
:105030002268996818324A602268002118329A6002
:10504000236898620368013303601C4B1E686F235A
:1050500022682068D1540430FEF720FC6B1C17D066
:105060002368AD195D60AE4206D9154B18682168FA
:105070000431FEF7FBFB70BD124B18682168043148
:10508000FEF7F4FB104B1A689542F4D21D60F2E76C
:105090000E4B21685A6890688A602168C860216850
:1050A0009068043141602168043191602268536145
:1050B0001A6801321A60DEE7305F0220A4DD0220A8
:1050C0003C5F0220385F022058DD02207CDD022098
:1050D00070B52A4C43680D0021689E68CB61216839
:1050E0000E6221689E6818317160216818319960DC
:1050F00023689862036801330360214B002A1CD0A7
:105100001B6800216F2322682068D1540430FEF709
:10511000C5FB1C4B21685A6890688A602168C8608A
:1051200021689068043141602168043191602268EF
:1051300053611A6801321A6070BD1E686F232168BE
:105140002068CA540430FEF7A9FB2368AD195D60DE
:10515000AE420BD80C4B186821680431FEF786FB71
:105160000A4B1A689542E7D21D60E5E7084B1868BC
:1051700021680431FEF77AFBDEE7C046305F02208B
:10518000A4DD02207CDD0220385F022058DD0220F1
:105190003C5F0220C368F0B5DB68D869196A9A6A77
:1051A00081604860180054681830844245D000215E
:1051B0009962116801391160264A1268002A2CD1BF
:1051C0009968D8685A698860D8681D1D416051681F
:1051D000A94234D01168013911601F4AD96A106898
:1051E000814228D88A001D4C52189200A618706877
:1051F00087689860DF6087687D6085605E61A3581E
:105200000133A350164B00201B68DB6A8B4203D28C
:105210000122144B01301A60F0BD134A51688C68AA
:10522000D9611C628C686060886011689A62013183
:105230001160D96AE6E71160D4E75160B7E71168F9
:10524000506001391160044AD96A10688142C9D995
:10525000F1E7C046ECDC0220F4DC0220445F0220CF
:10526000305F0220B0DD022064DD022080231B06B7
:10527000F0B50B438468416802690360C3688C60C1
:10528000846861605168814230D0002101611168F9
:10529000D8680139116099685A698860D8681D1DFD
:1052A00041605168A94223D0116801391160114A47
:1052B000D96A1068814200D911608A000E4C5218D8
:1052C0009200A618706887689860DF6087687D60C4
:1052D00085605E61A3580133A350084B1B68DB6AED
:1052E000994202D90122064B1A60F0BD5460CCE706
:1052F0005060D9E7F4DC0220445F0220305F0220D6
:10530000B0DD0220034B1B680360034B1B68436046
:105310007047C0465CDD0220A4DD0220F8B50E0017
:105320000700FDF79FFF6F23164C174A2168156889
:10533000ED5C002D07D0002101241268D154FDF747
:105340009DFF2000F8BD33685A1C19D00F487A68B9
:10535000844605683868A84205D08A4203D80023ED
:1053600001243360EBE78D1AAB42F8D95B1A9B1826
:10537000336063461B683B60236800247B60DEE784
:105380000024DCE7A4DD0220305F02205CDD022087
:105390000122014B1A607047B0DD022000280BD0BB
:1053A000026B00201378A52B05D10130135CA52BCF
:1053B000FBD08003000C7047014B1868F0E7C04633
:1053C000305F0220014B18687047C046305F0220F2
:1053D000F8B5041E21D0204DC26A2B68DB6A9A42C0
:1053E00014D28369002B04DB2B68D96A04235B1A6F
:1053F000836193009B18194E9B006269F3189A42CF
:105400000DD02B680120DB6AE36205E02B68406C5D
:10541000DB6A984280414042F8BD0020FCE7271D2E
:105420003800FEF73BFA2B68DA6A0D4BE262196826
:105430008A4200D91A6093009B189B00F1184A68B1
:105440009068A260E060906847609760F258616180
:1054500001320120F250DFE7305F0220445F02207A
:10546000F4DC022070B5041E08D0836CC26A416C63
:10547000013B83648A4201D0002B01D0002070BD23
:10548000051D2800FEF70AFA0423626C9B1AA3612B
:105490000B4BE26219688A4200D91A6093000949ED
:1054A0009B189B00C81842689668A260E6609668E0
:1054B00075609560CA58606101320120CA50DEE70C
:1054C000F4DC0220445F022070B5041E08D0436C57
:1054D0008B4206D3E26A9A4202D0A16C012905D020
:1054E00070BDE26A0B009A42F7D1F9E7A169E36265
:1054F000002902DB0421CB1AA36193009A18104DF6
:1055000092006369AA189342EAD1261D3000FEF783
:10551000C5F90C4BE26A19688A4200D91A609300F7
:105520009B189B00E9184A689068A260E060906848
:1055300046609660EA5861610132EA50D0E7C046A1
:10554000445F0220F4DC0220044B1A681968906959
:105550001A680423C96A5B1A93617047305F02209E
:10556000044B1A68002A03D019688A6C01328A64D5
:1055700018687047305F0220D24BF0B5DE465746C0
:105580004E4645469846D04BE0B59946CF4B89B03C
:105590009A46CF4B9B4643461B681C68002C00D1A3
:1055A000C4E0DB681C68FFF775FBFFF77DFC4B462A
:1055B0001B68019083423DD84A461060844200D85F
:1055C00027E10022019BE11A5B461868FEF782FF83
:1055D000FFF768FB002800D10DE15B460022186848
:1055E00004A9FEF721FC0028D5D0049B0193002BD1
:1055F00000DA8CE0069F7B69002B02D0381DFEF795
:105600004DF9FFF751FC4B461B680190984200D2C0
:10561000ABE04B46019A1A60049B092BDDD8AD4ADA
:105620009B00D3589F46012293432332A35420006A
:10563000236A984743461B681A68002A00D188E00D
:10564000DB68DC681E68271D3800FEF727F9242375
:105650000422E35C1A42E6D0A3692461F518F643FC
:105660006560B3420AD82E00F643236A20009847AB
:10567000A3692461ED186560B342F4D9534639003B
:105680001868FEF7F3F8D2E724220123B85C0599E5
:105690000343BB54BA69019C8B187B603F61A342F2
:1056A00000D9ABE0611A8A421BD8410700D5E9E076
:1056B000012398432333F85438003B6A98478CE71A
:1056C000242101227B5C13437B54059B0199BB6120
:1056D0005A187A603F618A4200D994E0002B00D1C9
:1056E0007BE75346391D1868FEF7C0F875E724229A
:1056F0000121BB5C8B43BB546FE72423FB5C9A07FF
:1057000000D49BE0012293432332BB5465E7079BFF
:105710000193069B01990293059B02980393984776
:10572000049B0193002B00DA57E763E7FFF7B2FA17
:10573000FFF7BAFB4B461B6802000190984200D26B
:1057400078E74B461A6053461B681A6853425A4121
:1057500038E75146424609681160524613604B468D
:10576000019A1A60FFF79EFA37E743461B681A68EA
:10577000002A39D002970BE0012293432332A3542D
:10578000236A2000984743461B681A68002A2AD0DB
:10579000DB68DC681E68271D3800FEF77FF82423CD
:1057A0000422E35C1A42E7D0A3692461F518F643AA
:1057B0006560B3420AD82E00F643236A200098475A
:1057C000A3692461ED186560B342F4D953463900EA
:1057D0001868FEF74BF8236A2000984743461B6879
:1057E0001A68002AD4D1029F5146424609681160C6
:1057F000524613600DE7FDF729FDEEE6A14202D9FE
:10580000994200D851E74346391D1868FEF72EF833
:10581000E3E6FFF747FA43461B68DB68DD682F1DA8
:105820003800FEF73BF82422AB5C59070AD401216B
:105830008B43AB5428002B6A9847CEE6380000F023
:1058400003F9CAE62300019C06E0E31A9A4213D842
:105850002B6A280098473300AA692D619E186E6054
:10586000A642F2D9A34201D9B342F1D94346390045
:105870001868FDF7FBFFDDE7534639001868FDF7B0
:10588000F5FFD7E7019D07E0EB1A9A4213D83B6A70
:10589000380098472300BA69D4187C603F61A5425C
:1058A000F2D29D4201D2A342F1D94346391D186874
:1058B000FDF7DCFF00E75346391D1868FDF7D6FFFA
:1058C000FAE6C046345F022050DD0220405F02202D
:1058D000A8DD022058B4001070B582B0FDF7C2FCFC
:1058E000174C2368002B12D0FDF7C8FC236800205A
:1058F000002B0AD0134B80220193032312490093FB
:10590000124800235200FEF733FF02B070BD104E64
:105910003000FDF78FFF0F4D2800FDF78BFF0E4B7A
:1059200000221E600D4B10210A201D60FDF7C8FFEC
:1059300020600028D8D00A49FEF740FDD4E7C046D1
:10594000A8DD0220ACDD022088B4001079550010DB
:10595000F8DC02200CDD0220345F0220405F0220D0
:1059600080B4001010B514001A00022384B05B420A
:105970000093054B01900291186869460023039437
:10598000FEF7C0F904B010BDA8DD0220F8B50D0087
:10599000EFF3108772B60C4B10309B6884001E59D1
:1059A000B14205D0094B9E420BD3094B9E4208D20F
:1059B000054B9B681D51BFF35F8F87F31088300044
:1059C000F8BD00F0E5F8F3E700ED00E0C0010010DD
:1059D000CC01001070B507260400064205D0030074
:1059E000B3430833834213D91C00FFF753F9124B1A
:1059F0001D68002D17D0002C10D0104A10491368D4
:105A00001C198C420AD8A34208D2ED18146006E093
:105A1000FFF740F9084B1D68002D09D00025FFF75E
:105A200041F9280070BD0722064D95431D60E2E74D
:105A3000044AB2431A60F2E7285F022054DD0220D4
:105A4000F77C0000C75F02207047C046024B034846
:105A50001B68C01A7047C04654DD0220F87C000065
:105A60002C4B2D4A70B51A602C4A2D4B2D491A60CB
:105A700014008B689C43FBD12B4D2C4EB54208D2B1
:105A8000013E761BB60808CD984723000134B34287
:105A9000F9D100F083F8264A214B1A60214A936815
:105AA000DB43DB01DD09002BF9D14022214B224CE5
:105AB000224E9A675A671A67DA66B44208D2236898
:105AC0002000002B20D00C34FDF7D8FAB442F6D3D6
:105AD0001B4E1C4CC022A168300002F05DFCA66089
